S01B00004D6F6E73746572547275636B2D42542D5053332E7372656352
S11300000C9408040C9425040C9425040C942504E5
S11300100C9425040C9425040C9425040C942504B8
S11300200C9425040C9425040C9425040C942504A8
S11300300C9425040C9425040C9425040C94250498
S11300400C9425040C9425040C94EE0F0C942504B4
S11300500C9425040C9425040C9425040C94250478
S11300600C9425040C9425040C9425040C94250468
S11300700C9425040C9498100C9425040C942504D9
S11300800C9425040C9425040C9425040C94250448
S11300900C9425040C9425040C9425040C94250438
S11300A00C9425040C94D2100C9425040C9425046F
S11300B00C94250466078C075508BA088A08650954
S11300C09808DA09DA09A209A209DA09DA091C0787
S11300D05607A209A209DA09DA09A209A2092F0915
S11300E05C09DA09DA09DA09DA09A209A209A2091A
S11300F0A209DA09100A2C0A940AA80AD40AEC0AFA
S1130100790A030B250B750B950BB80BD30BEE0B70
S1130110A10C210DDA0CF40C0D0A48434920446962
S113012073636F6E6E65637465642066726F6D20B1
S1130130446576696365003A000D0A436F6E6E6527
S11301406374656420746F204465766963653A203E
S1130150000D0A50533420636F6E74726F6C6C65BB
S11301607220697320636F6E6E656374696E6700D5
S1130170202D205769692042616C616E63652042BD
S11301806F61726400202D205769692055205072D8
S11301906F20436F6E74726F6C6C657200207769A8
S11301A07468204D6F74696F6E20506C75732049AC
S11301B06E73696465000D0A5769696D6F74652013
S11301C0697320636F6E6E656374696E67000D0AF0
S11301D052656D6F7465204E616D653A20000D0A9D
S11301E0496E636F6D696E6720436F6E6E656374ED
S11301F0696F6E2052657175657374000D0A5761DD
S1130200697420466F7220496E636F6D696E672052
S1130210436F6E6E656374696F6E205265717565A8
S11302207374000D0A436F6E6E65637465642074A5
S11302306F2048494420646576696365000D0A436C
S11302406F6E6E656374656420746F205769696DA1
S11302506F7465000D0A436F6E6E656374696E6733
S113026020746F2048494420646576696365000DF5
S11302700A436F6E6E656374696E6720746F2057EE
S113028069696D6F746500646576696365005769B3
S1130290696D6F7465000D0A416E64207468656E43
S11302A020707265737320616E7920627574746F47
S11302B06E206F6E2074686520000D0A4254484910
S11302C0442062746869642826427464293B000DE2
S11302D00A574949205769692826427464293B0012
S11302E00D0A4E6F77206A757374206372656174AA
S11302F0652074686520696E7374616E6365206C33
S1130300696B6520736F3A000D0A4849442064659F
S11303107669636520666F756E64000D0A576969B6
S11303206D6F746520666F756E64000D0A506C65A0
S113033061736520656E61626C6520646973636FC7
S113034076657279206F6620796F757220646576A0
S1130350696365000D0A5374617274696E6720697C
S11303606E71756972790D0A50726573732031204C
S1130370262032206F6E20746865205769696D6F7E
S113038074650D0A4F72207072657373207468650A
S11303902053594E4320627574746F6E2069662031
S11303A0796F7520617265207573696E67206120AD
S11303B057696920552050726F20436F6E74726FB5
S11303C06C6C6572206F72206120576969204261EC
S11303D06C616E636520426F617264000D0A54683B
S11303E065206E616D652069732073657420746F78
S11303F03A20003A000D0A4C6F63616C20426C7520
S113040065746F6F746820416464726573733A2015
S1130410000D0A577269746520636C617373206FF1
S11304206620646576696365000D0A5772697465B0
S11304302061636365737320656E61626C6564003B
S11304400D0A4E6F20726573706F6E736520746F42
S113045020484349205265736574000D0A48434996
S113046020526573657420636F6D706C65746500EC
S11304700D0A556E6D616E616765642048434920BD
S11304804576656E743A20000D0A50616972696E92
S113049067204661696C65643A20000D0A50616901
S11304A072696E67207375636365737366756C2018
S11304B077697468204849442064657669636500F7
S11304C00D0A50616972696E6720737563636573A1
S11304D07366756C2077697468205769696D6F74E9
S11304E065000D0A5265636569766564204B65791C
S11304F02052657175657374000D0A4E6F20706922
S11305006E2077617320736574000D0A426C756503
S1130510746F6F74682070696E20697320736574DA
S113052020746F6F3A20000D0A50616972696E671A
S11305302077697468205769696D6F7465002000BD
S113054020000D0A436C617373206F662064657626
S11305506963653A20000D0A47616D657061642026
S1130560697320636F6E6E656374696E67000D0A4C
S11305704B6579626F61726420697320636F6E6E7C
S1130580656374696E67000D0A4D6F757365206944
S11305907320636F6E6E656374696E67000D0A4342
S11305A06F6E6E656374696F6E204661696C656415
S11305B03A20000D0A436F6E6E656374696F6E2096
S11305C065737461626C6973686564000D0A4761E0
S11305D06D6570616420666F756E64000D0A4B650D
S11305E079626F61726420666F756E64000D0A4DE6
S11305F06F75736520666F756E6400200020000DB2
S11306000A436C617373206F662064657669636561
S11306103A20000D0A4E756D626572206F66207275
S11306206573706F6E7365733A20000D0A436F75BE
S11306306C646E27742066696E64204849442064A3
S11306406576696365000D0A436F756C646E277483
S11306502066696E64205769696D6F7465000D0AC0
S113066048434920436F6D6D616E64204661696C37
S113067065643A2000000000000000000001010150
S11306800101010101010101010101010202020252
S11306900202020202030303030303040404040426
S11306A00505050506060607070708080809090AD7
S11306B00A0B0B0C0C0D0D0E0F0F1011111213144D
S11306C015161718191A1B1C1D1F20212324262751
S11306D0292B2C2E30323436383A3C3E40434547A1
S11306E04A4C4F515457595C5F6264676A6D70732A
S11306F076797C7F8285888B8E9194979A9C9FA231
S1130700A5A7AAADAFB2B4B7B9BBBEC0C2C4C6C870
S1130710CACCCED0D2D3D5D7D8DADBDDDEDFE1E266
S1130720E3E4E5E6E7E8E9EAEBECEDEDEEEFEFF024
S1130730F1F1F2F2F3F3F4F4F5F5F6F6F6F7F7F770
S1130740F8F8F8F9F9F9F9FAFAFAFAFAFBFBFBFB0B
S1130750FBFBFCFCFCFCFCFCFCFCFCFDFDFDFDFDD2
S1130760FDFDFDFDFDFDFDFDFDFDFEFEFEFEFEFEAF
S1130770FEFFFF0D0A4C3243415020556E6B6E6FE5
S1130780776E205369676E616C696E6720436F6D85
S11307906D616E643A2000204964656E746966690F
S11307A065723A2000200020534349443A20002037
S11307B0000D0A4C3243415020436F6E6E656374E2
S11307C0696F6E2052657175657374202D205053C6
S11307D04D3A20000001020408090A0C0D0E0F0016
S11307E0000000000000000000FF27100032FF2777
S11307F0100032FF27100032FF27100032000000E3
S113080000000000000000000000000000000000E4
S113081011241FBECFEFD8E0DEBFCDBF11E0A0E0B2
S1130820B1E0E4E2FFE202C005900D92AA3FB107F5
S1130830D9F724E0AAEFB1E001C01D92A237B207B4
S1130840E1F70E949A110C9490170C940000FC019B
S113085015AA16AA12AE13AEDC01A45BBF4F1C92FC
S113086015AE1E971D921D921D921C9213971A96F7
S11308701C92E75BFF4F81E080830895FC0185E0D3
S113088091E0958384838AE091E09783868315AA17
S113089017AA12AE14AE15AEDF01DE961D921D929C
S11308A01D921C9213971A961C92119681E08C93B8
S11308B01A9611961C921E9251971D921C92CF016A
S11308C00E9427040895EF92FF920F931F93CF93F2
S11308D07B018A01FC01EB5AFF4F208131812E7F7D
S11308E03183208381E00E94E60E0115110579F021
S11308F080E090E0C0E0F701E80FF91F80810E94DA
S1130900E60ECF5F8C2F90E080179107A0F3CF9174
S11309101F910F91FF90EF900895FC01EB5AFF4F48
S113092011821082EEE3F3E023E020832CE02183A4
S1130930128243E050E0BF010E9463040895FC0169
S1130940EB5AFF4F208131812F7E31832083EEE3E8
S1130950F3E02AE120832CE0218321E02283FC01BF
S113096024813581232B21F023E02093410303C00C
S113097022E02093410344E050E06EE373E00E94E0
S113098063040895FC01EB5AFF4F208131812F7DD0
S113099031832083EEE3F3E029E0208320E1218307
S11309A0128243E050E0BF010E9463040895FC01F9
S11309B0EB5AFF4F208131812F7B31832083EEE37B
S11309C0F3E021E0208320E12183128243E050E020
S11309D0BF010E9463040895DC01FC01EB5AFF4F40
S11309E0808191818D7F91838083EEE3F3E089E0C0
S11309F0808384E0818387E0828350968C91509732
S1130A00838351968C915197848352968C915297FB
S1130A10858353968C915397868354968C915497DF
S1130A20878355968C915597808711864AE050E0CC
S1130A30BF01CD010E9463040895DC01FC01EB5A5F
S1130A40FF4F80819181877F91838083EEE3F3E080
S1130A5089E1808384E081838AE0828350968C914B
S1130A605097838351968C915197848352968C919D
S1130A705297858353968C915397868354968C9181
S1130A805497878355968C915597808781E0818709
S1130A901286138614864DE050E0BF01CD010E94FA
S1130AA0630408950F931F93CF93DF938C01EB019D
S1130AB0EEE3F3E083E180838CE08183DB010D903E
S1130AC00020E9F7CD01861B828390E00AC0FE0175
S1130AD0E20FF31F8081E92FF0E0E25CFC4F838397
S1130AE09F5F292F30E0FE0101900020E9F7319744
S1130AF0EC1BFD0B2E173F0750F3F901E25CFC4F92
S1130B001382FE0101900020E9F7AF014C1B5D0B3D
S1130B104D5F5F4F6EE373E0C8010E946304DF9191
S1130B20CF911F910F910895FC01EB5AFF4F208143
S1130B3031812F7731832083EEE3F3E021E02083BA
S1130B4024E0218325E0228323E323832BE82483E9
S1130B502EE9258320E326832AE0278348E050E01A
S1130B60BF010E9463040895EEE3F3E022E02083D2
S1130B7024E02183128243E050E0BF010E94630419
S1130B800895DB01FC01EB5AFF4F208131812D7F59
S1130B903E7F31832083EEE3F3E025E0208324E0ED
S1130BA021832DE022832C91238311962C9111977C
S1130BB0248312962C911297258313962C911397C4
S1130BC0268314962C911497278315962C912087AD
S1130BD028E121872CEC228721E0238714861586BF
S1130BE01686178640E150E0BF010E946304089511
S1130BF0BC01605F7F4F0E94C1050895CF93DF93CE
S1130C00EC01EEE3F3E08DE0808384E0818387E10F
S1130C10828388898383898984838A8985838B896C
S1130C2086838C8987838D8980878FA9882341F166
S1130C3086E080934703FE01E65BFF4F80818823B3
S1130C4069F0E254F109A8E4B3E09E01225F3F4F4A
S1130C5081918D93E217F307D9F749C0FE0170968D
S1130C60A8E4B3E09E012A5E3F4F81918D93E21781
S1130C70F307D9F73CC01192E817F907E1F72FC041
S1130C80AE81BF81FD0101900020E9F73197EA1B95
S1130C90FB0BE093470390E00AC0FD01E20FF31F52
S1130CA08081E92FF0E0E25CFC4F82879F5F292F6F
S1130CB030E0AE81BF81FD0101900020E9F731975A
S1130CC0EA1BFB0B2E173F0740F3903140F4E92F4A
S1130CD0F0E0E25CFC4F12869F5F9031C1F74AE17D
S1130CE050E06EE373E0CE010E94630405C0EEE4BD
S1130CF0F3E088E593E0BFCFDF91CF910895DC0165
S1130D00EEE3F3E08EE0808384E0818386E08283F7
S1130D1050968C915097838351968C9151978483EC
S1130D2052968C915297858353968C9153978683D0
S1130D3054968C915497878355968C9155978087B8
S1130D4049E050E0BF01CD010E9463040895DC0135
S1130D50EEE3F3E08CE0808384E0818386E08283A9
S1130D6050968C915097838351968C91519784839C
S1130D7052968C915297858353968C915397868380
S1130D8054968C915497878355968C915597808768
S1130D9049E050E0BF01CD010E9463040895EEE3F1
S1130DA0F3E021E1208324E0218322E02283DC019B
S1130DB01E963C911E971F962C9133832F7024838B
S1130DC045E050E0BF010E9463040895FC01EB5A22
S1130DD0FF4F208131812B7F31832083EEE3F3E0C9
S1130DE026E0208324E0218323E0228363837F7031
S1130DF0748323E1258346E050E0BF010E9463042D
S1130E0008958F929F92AF92BF92CF92DF92EF920A
S1130E10FF920F931F93CF93DF935C0120913E03C6
S1130E20822F90E0FC013197E032F10508F08AC28C
S1130E30E65AFF4F0C945E17809143038111BAC2A6
S1130E40F501EB5AFF4F20813181C9018160918303
S1130E50808380914103813071F480914203803119
S1130E6009F0A8C280914403D501D4968C932164DF
S1130E70318320839FC2893009F09CC28091420350
S1130E80803109F097C2A4E4B3E0F5013896A501D6
S1130E90425F5F4F8D918193E417F507D9F7F50110
S1130EA0EB5AFF4F21623183208384C28091400337
S1130EB0882309F47FC260E88EE596E00E944D0F16
S1130EC060E8809140030E94600F74C2F501E95A02
S1130ED0FF4F80818530C8F0F50187A981113FC299
S1130EE084AD811146C211C0D501D5961C92D59707
S1130EF0D7961C92D797DA961C92DA97DC961C92B6
S1130F008BE0F501E05BFF4F8083F501E95AFF4F69
S1130F1080818F5F80834EC280914003882309F4CF
S1130F2049C260E883E196E00E944D0FCEE3D3E02E
S1130F3060E88A810E94600FEA81EE2309F43AC2D4
S1130F40812C912C7501BDE4EB0EF11CE501C25B13
S1130F50DF4F8501015B1F4F0F2EFEE3CF2EF3E021
S1130F60DF2EF02DEE0FEE0FEE0FE80DF0E0E25C59
S1130F70FC4F8481D7018C93858188838681F80115
S1130F80808360E88FEF95E00E944D0F60E8D80100
S1130F908C910E94600F60E88DEF95E00E944D0FE8
S1130FA060E888810E94600F60E88BEF95E00E9402
S1130FB04D0F60E8F70180810E94600FD501D7963C
S1130FC08C91882381F1F801808181112CC0888162
S1130FD0857009F460C0D7018C918C7009F4D3C179
S1130FE081E0F501E55BFF4F8083892D90E09C0152
S1130FF0220F331F820F931F880F991FFC01EF5B91
S1131000FC4FD5015096895B9C4F21912D93E81795
S1131010F907D9F7F501EB5AFF4F80819181806878
S113102091838083C7C1F50184AD8823A1F18881B0
S1131030857089F1D7018C91982F987C61F1882370
S11310402CF460E88DEE95E00E944D0FF501E35B12
S1131050FF4F808186FF05C060E88CED95E00E941B
S11310604D0FF501E35BFF4F808183FF92C160E880
S11310708CEC95E00E944D0F8CC121912D93E817C3
S1131080F907D9F7F501EB5AFF4F80819181806808
S1131090918380838FC19394D6011296EC91B3E02F
S11310A08B0E9E1608F45ECF85C1F501EB5AFF4FF7
S11310B0808191819160918380838091400381112B
S11310C019C060E883EB95E00E944D0FEEE3F3E076
S11310D084818F7090E0982F88272381822BF501DB
S11310E097878687EB5AFF4F808191818260918335
S11310F0808360C1F501E05BFF4F87E0808360E897
S11311008DE995E00E944D0F60E8809140030E94B4
S1131110600F50C18091400381114CC1F501EB5A1D
S1131120FF4F808191818D7F84609183808342C150
S11311308091400381113EC180914703D5015696A9
S11311408C93882371F0A8E4B3E0F50177969501B8
S11311502C5C3F4F8D918193882319F0E217F3079C
S1131160C9F7F501EB5AFF4F808191818860918323
S1131170808320C1A0E4B3E0F501709695012A5E56
S11311803F4F8D918193E217F307D9F7AEE3B3E0B4
S113119018968C911897F501E35BFF4F808319969D
S11311A08C911997319680831A968C91D501A15B05
S11311B0BF4F8C938081857029F131978081982F5E
S11311C0987C01F188232CF460E887E895E00E947C
S11311D04D0FF501E35BFF4F808186FF05C060E89A
S11311E08EE695E00E944D0FF501E35BFF4F808191
S11311F083FF05C060E886E595E00E944D0F81E01D
S1131200F50183AF60E882E495E00E944D0FF5019B
S1131210E15BFF4F60E880810E94600F60E880E43A
S113122095E00E944D0FF501E25BFF4F60E880817D
S11312300E94600F60E88EE395E00E944D0FF50177
S1131240E35BFF4F60E880810E94600FF501EB5A79
S1131250FF4F80819181806191838083ABC0D501F0
S1131260D7968C91882349F060E887E295E00E9444
S11312704D0FC5010E94FE059DC0F5018681978131
S1131280892B89F060E88AE095E00E944D0F60E8C0
S1131290D50116968D919C9117970E944D0FC5010B
S11312A00E94FE0587C060E889EF94E00E944D0F1C
S11312B0C5010E947F067EC060E882EE94E00E9431
S11312C04D0FC5010E94A70675C08091400381118E
S11312D023C0F50187A9882369F085A981110AC073
S11312E060E880EC94E00E944D0F81E0D501D59632
S11312F08C9360C0F50184AD882309F45BC082AD92
S1131300811158C060E88BE994E00E944D0F81E0A0
S1131310D501DA968C934EC060E888E894E00E9488
S11313204D0F60E8809140030E94600FF5016685CF
S11313307785C5010E94E606F501E05BFF4F81E178
S1131340808338C02223B1F160E880E794E00E94F2
S11313504D0F60E880913E030E94600F2BC0F501A1
S1131360E95AFF4F108260E886E496E00E944D0F30
S1131370BBCDF501E95AFF4F108260E88BE296E09D
S11313800E944D0FB1CDD501DC968C91811152CEC6
S113139082CE892D90E09C01220F331F820F931F70
S11313A0880F991FFC01EF5BFC4FD5015096895BB8
S11313B09C4F63CEDF91CF911F910F91FF90EF90DF
S11313C0DF90CF90BF90AF909F908F900895EEE301
S11313D0F3E024E220832CE0218323E022831382A0
S11313E021E02483158246E050E0BF010E9463049B
S11313F00895DF92EF92FF920F931F93CF93DF93A1
S1131400FC01E05BFF4FE0814E2F50E0423151057B
S113141008F017C3EC01FA01E658FF4F0C945E176D
S1131420FC01EF5AFF4F8081918101969183808363
S11314303296208131812817390708F002C3CE0182
S11314400E948D04FE01E05BFF4F81E08083CF5A50
S1131450DF4F19821882F5C2FC01EF5AFF4F8081D9
S113146091810196918380833496208120FF11C05D
S113147034971182108260E88BE594E00E944D0F4E
S1131480FE01E05BFF4F86E08083CE010E94E70906
S1131490D8C2FE01ED5AFF4F208131812817390748
S11314A008F0CFC2C901880F991F220F331F220FE2
S11314B0331F220F331F280F391F213D87E03807C0
S11314C018F43183208307C080ED97E0FE01ED5AC4
S11314D0FF4F9183808360E880E494E00E944D0F85
S11314E0FE01E05BFF4F1082CF5ADF4F1982188252
S11314F0A8C2FC01EB5AFF4F808180FF0DC060E859
S113150089E294E00E944D0FCE010E94E709C05B7E
S1131510DF4F82E0888395C2CE010E94E709C05B59
S1131520DF4F82E088838DC2FC01EB5AFF4F80813C
S113153080FF87C260E881E194E00E944D0FFE01C4
S1131540E05BFF4F83E08083CE010E94C20479C236
S1131550FC01EB5AFF4F808185FF73C260E885EF81
S113156093E00E944D0F8E01025F1F4F7E0199E0B0
S1131570E90EF11C60E8D8018E918D010E94600F84
S113158060E883EF93E00E944D0F0E151F0591F75D
S113159060E888850E94600FCE010E94D704C05B7A
S11315A0DF4F84E088834DC2FC01EB5AFF4F8081FA
S11315B086FF47C26C817D816115710541F0CE01C2
S11315C00E945205C05BDF4F85E088833AC2C05B4E
S11315D0DF4F87E0888335C2FC01EB5AFF4F8081DF
S11315E080FF2FC260E88CED93E00E944D0F8C8148
S11315F09D810E94290FCE010E949F04C05BDF4F92
S113160087E088831EC28CAD811104C08FA981112B
S113161004C016C08FA9882331F060E884E593E004
S11316200E944D0F05C060E88BE293E00E944D0FCD
S1131630CE010E949405C05BDF4F88E0888301C21D
S1131640C05BDF4F8BE08883FCC1FC01EB5AFF4F8A
S1131650808187FFF6C1CE010E94B4058FA988233B
S113166031F060E88BE193E00E944D0F05C060E823
S113167088E093E00E944D0F60E880EE92E00E94C3
S11316804D0F8FA9882331F060E88FEC92E00E941F
S11316904D0F05C060E88AEB92E00E944D0F60E8B0
S11316A086E992E00E944D0F8FA9882331F060E80B
S11316B08EE892E00E944D0F05C060E887E892E052
S11316C00E944D0FFE01E55BFF4F8081882341F0AE
S11316D0CE010E941D05C05BDF4F8DE08883B1C140
S11316E0C05BDF4F89E08883ACC1FC01EB5AFF4F3C
S11316F0808180FFA6C18FA9882331F060E88FE63E
S113170092E00E944D0F05C060E884E592E00E94DB
S11317104D0FFE01E55BFF4F1082CE010E94F805DC
S1131720C05BDF4F8AE088838CC1FC01EB5AFF4F1A
S11317308081918190FF85C181FF16C08FA9882384
S113174031F060E88DE392E00E944D0F05C060E83F
S113175083E292E00E944D0FCE010E94CF06C05B4F
S1131760DF4F8BE088836DC1CE010E94F80569C10B
S11317708DA9811166C18FA9811163C18AAD8111BF
S113178060C18CAD81115DC160E88CEF91E00E9475
S11317904D0FCE010E949F0481E08883C05BDF4F20
S11317A08CE088834EC1FC01EB5AFF4F808184FF9B
S11317B00EC0188260E88EED91E00E944D0FCE01BC
S11317C00E941D05C05BDF4F8DE088833AC182FF14
S11317D038C1C05BDF4F81E1888333C1FC01EB5A20
S11317E0FF4F808183FF2DC160E88EEC91E00E9461
S11317F04D0FF12C8E010A5E1F4F08C0FE01EF0D44
S1131800F11D60E886890E94650FF394D02EE12EC5
S1131810F80101900020E9F73197E01BF10B2F2D1F
S113182030E02E173F0750F348E050E06FE071E0DE
S1131830802F912F0E948217892B09F04AC081E0E2
S11318408EAB18AE19AEFE01E65BFF4F108260E866
S113185086EB91E00E944D0F46E150E068E171E0B3
S1131860802F912F0E948217892B41F460E88DE923
S113187091E00E944D0F81E088AF2BC046E150E01B
S11318806FE271E0802F912F0E948217892B69F4F7
S113189060E885E891E00E944D0F81E0FE01E65B7F
S11318A0FF4F808388AF89AF14C043E150E066E402
S11318B071E0802F912F0E948217892B51F460E8E8
S11318C080E791E00E944D0F81E0FE01E65BFF4F4F
S11318D08083FE01E15BFF4F808181111CC0319741
S11318E080818532C1F4319780818830A1F443E14D
S11318F050E06AE571E08D2D9E2D0E948217892BA0
S113190051F460E881E591E00E944D0F81E0FE0111
S1131910E45BFF4F80838FA9882359F0FE01E55BC8
S1131920FF4F8081882329F0C05BDF4F89E08883E3
S113193088C0CE010E94EC04C05BDF4F8EE0888338
S113194080C0FC01EB5AFF4F808181FF7AC060E8C0
S113195089E391E00E944D0F8E010A5E1F4F7E01C4
S1131960B1E1EB0EF11C60E8F80182918F010E9455
S1131970600F60E887E391E00E944D0F0E151F058C
S113198091F760E888890E94600FFE01E45BFF4FD5
S11319908081882311F081E08AAF19821A821B8228
S11319A0FE01EB5AFF4F11821082C05BDF4F80E1D2
S11319B0888347C0FC01EF5AFF4F208131812F5F9C
S11319C03F4F293EF3E03F0728F4CF5ADF4F3983D6
S11319D0288337C0FC01EF5AFF4F11821082C05B8D
S11319E0DF4F8BE088832DC0FC01EB5AFF4F8081D1
S11319F082FF27C060E888E191E00E944D0FFE015C
S1131A00EB5AFF4F1182108280E4EEE3F3E0DF0132
S1131A10982F1D929A95E9F7FE01E85AFF4FDF01CE
S1131A201D928A95E9F71FAA1EAA1DAA3D97108246
S1131A301CAE1BAE1AAE31961082C05BDF4F8BE03A
S1131A408883DF91CF911F910F91FF90EF90DF90EA
S1131A5008958F929F92AF92BF92CF92DF92EF92AE
S1131A600F931F93CF93DF93CDB7DEB75A018DB693
S1131A709EB6C22ED12CC60108964DB75EB7481B40
S1131A80590B0FB6F8945EBF0FBE4DBF4F5F5F4F4B
S1131A90EDB7FEB761837F707062FA01718384E0F1
S1131AA0820F8283C601049693832483158206835E
S1131AB0E782C114D10459F0D501389604969A01ED
S1131AC0280F391F8D918193E217F307D9F782E02C
S1131AD00E94E60E8501F8E0CF0ED11CAC0CBD1CB3
S1131AE0F80181918F010E94E60E0A151B05C1F7CA
S1131AF00FB6F8949EBE0FBE8DBEDF91CF911F919D
S1131B000F91EF90DF90CF90BF90AF909F908F9008
S1131B100895EF920F931F93CF93DF93D801FC01A5
S1131B20E856FF4F53E05083EC01C756DF4F48831C
S1131B30219648E0488321961882E9014881EC0106
S1131B40C456DF4F4883E9012981EC01C356DF4FB6
S1131B5028832C912196288311962C91DC01A1567F
S1131B60BF4F2C931196EC9211961C9211961C92D5
S1131B7011961C92E12C01E02CE0AF010E94290D8A
S1131B80DF91CF911F910F91EF900895EF920F93F2
S1131B90FC01E856FF4F54E05083DC01A756BF4FC9
S1131BA04C93119648E04C9311961C92D9014C9198
S1131BB0DC01A456BF4F4C93D90111962C91DC0142
S1131BC0A356BF4F2C9311961C9211961C921196FA
S1131BD021E02C93119622E02C9311962FEF2C9355
S1131BE011962C93E12C01E02CE0AF010E94290D09
S1131BF00F91EF900895EF920F93FC01E856FF4F79
S1131C0055E05083DC01A756BF4F4C9311964AE030
S1131C104C9311961C92D9014C91DC01A456BF4FF0
S1131C204C93D90111962C91DC01A356BF4F2C93F0
S1131C3011961C9211961C9211961C9211961C924C
S1131C40119621E02C93119622E02C93119630EA00
S1131C503C9311962C93E12C01E02EE0AF010E94FD
S1131C60290D0F91EF900895EF920F931F93CF9347
S1131C70DF93D801FC01E856FF4F56E05083EC0196
S1131C80C756DF4F4883219644E048832196188243
S1131C90E9014881EC01C456DF4F4883E9012981F9
S1131CA0EC01C356DF4F28832C912196288311968B
S1131CB02C91DC01A156BF4F2C93E12C01E028E0CC
S1131CC0AF010E94290DDF91CF911F910F91EF90E9
S1131CD00895EF920F931F93CF93DF93D801FC01E4
S1131CE0E856FF4F57E05083EC01C756DF4F488357
S1131CF0219644E0488321961882E9014881EC0149
S1131D00C456DF4F4883E9012981EC01C356DF4FF4
S1131D1028832C912196288311962C91DC01A156BD
S1131D20BF4F2C93E12C01E028E0AF010E94290D64
S1131D30DF91CF911F910F91EF900895877080618B
S1131D401092A0008093A10080E49FE1909387000B
S1131D5080938600789480E280937200089591EADB
S1131D6090939000E1E9F0E090818770982B908344
S1131D70529A5A9A08958A3010F0895C0895805DC9
S1131D8008951F93CF93DF93182F82958F700E942D
S1131D90BB0ECAE0D2E08883812F8F7080930D023E
S1131DA00E94BB0E89831A82CE01DF91CF911F91CD
S1131DB008959093C5008093C40088E98093C1007E
S1131DC08EE08093C200269A27980895E0ECF0E014
S1131DD0908195FFFDCF8093C60008959093CD0028
S1131DE08093CC0088E38093C9008EE08093CA007E
S1131DF008959091C80095FF24C0909111029923F1
S1131E0029F11FC0E9ECF0E0908190629083209169
S1131E10100290911102291304C010921102109221
S1131E201002909111029F3F99F0E0911102F0E0AD
S1131E30EE5EFD4F8083809111028F5F80931102CB
S1131E4008959091C90095FFDDCFE1CF8093CE0036
S1131E500895CF93DF93EC018DE00E94F90E8AE0A0
S1131E600E94F90E8881882331F021960E94F90E90
S1131E7089918111FBCFDF91CF910895CF93DF93A7
S1131E80EC018881882331F021960E94F90E899112
S1131E908111FBCFDF91CF910895CF93DF93EC01B4
S1131EA0FC018491882349F0FE0184910E94F90E7B
S1131EB02196FE0184918111F7CFDF91CF9108958E
S1131EC00E94C10E0E943E0F08950E94F90E0895CB
S1131ED081E00E94AF0E85E00E949E0E8CE090E0AF
S1131EE00E94EE0E89E190E00E94D90E089520919F
S1131EF06A0430916B0440916C0450916D046091BC
S1131F006E0470916F04809170049091710408952F
S1131F108F929F92AF92BF92CF92DF92EF92FF92F5
S1131F200F931F93CF93DF93A0906A04B0906B0438
S1131F30C0906C04D0906D04E0906E04F0906F0437
S1131F400091700410917104282F392F40E050E063
S1131F5060E070E080E090E00E946417822E932E8F
S1131F60D42FC52FB62FA72FF82FE92F20930202C5
S1131F7030930302409304025093050260930602D7
S1131F80709307028093080290930902A0906A0458
S1131F90B0906B04C0906C04D0906D04E0906E041B
S1131FA0F0906F040091700410917104282D392D64
S1131FB04D2F5C2F6B2F7A2F8F2F9E2F0E94791716
S1131FC029F7DF91CF911F910F91FF90EF90DF9050
S1131FD0CF90BF90AF909F908F9008951F920F92D3
S1131FE00FB60F9211242F933F934F935F936F93E8
S1131FF07F938F939F93AF93BF93EF93FF938091BE
S1132000C600809301029091000291110DC09EEFD1
S1132010980F933008F070C08093FF0181E08093A3
S1132020000210920F0273C02091FD013091FE0155
S11320302C3291E0390708F066C09091FF0192308C
S113204019F0943039F158C02F5F3F4F3093FE019F
S11320502093FD0180910101909102012817390715
S113206009F04AC08091010190910201909304010A
S1132070809303018BE291E090930201809301012C
S113208081E080930E021092FE011092FD011092E5
S113209000023DC0F901E25CFC4F80832130310530
S11320A031F490E0029690930201809301012F5F36
S11320B03F4F3093FE012093FD01809101019091E7
S11320C0020128173907C1F480910101909102019E
S11320D090930401809303018BE291E090930201B9
S11320E08093010181E080930F021092FE0110920F
S11320F0FD01109200020BC08091FD019091FE0140
S11321008C32914020F08AEB91E00E94290FFF91DC
S1132110EF91BF91AF919F918F917F916F915F915B
S11321204F913F912F910F900FBE0F901F901895D4
S11321301F920F920FB60F9211248F939F93EF93D8
S1132140FF9380911102811109C08091C90085FF1C
S113215005C0E9ECF0E080818F7D808380911102DD
S11321608823B9F0E0911002F0E0EE5EFD4F80812B
S11321708093CE00809110028F5F80931002909123
S1132180100280911102981304C01092110210924F
S11321901002FF91EF919F918F910F900FBE0F90BE
S11321A01F9018951F920F920FB60F9211242F9320
S11321B03F934F935F936F937F938F939F93AF93CB
S11321C0EF93FF9320916A0430916B0440916C0467
S11321D050916D0460916E0470916F04809170044D
S11321E090917104A1E00E946D1720936A043093CA
S11321F06B0440936C0450936D0460936E0470936D
S11322006F0480937004909371048091FC018F316A
S113221008F474C01092FC01E091FB01E03E48F523
S113222080910001882309F46FC0EF5FE093FB0104
S1132230F0E0EB58F94FE491F0E0F0939B00E09369
S11322409A008091FA01882361F080919A0090911C
S11322509B0087BD18BC28985F9A8091FA01811170
S113226008C080919A0090919B0088BD17BC289A61
S11322705F98E091FB01E03E39F4809100018823EE
S113228029F01092000102C0EE2361F18091000157
S1132290811134C0E150E093FB01F0E0EB58F94FB9
S11322A0E491F0E0F0939B00E0939A008091FA01AE
S11322B0882361F080919A0090919B0087BD18BC9F
S11322C028985F9A8091FA01811108C080919A0040
S11322D090919B0088BD17BC289A5F988091FB0160
S11322E081110CC080910001811108C081E08093AC
S11322F000019091FA0189278093FA018091FC01F1
S11323008F5F8093FC0106C0E091FB01E03E09F081
S1132310BBCFBCCFFF91EF91AF919F918F917F91F4
S11323206F915F914F913F912F910F900FBE0F903E
S11323301F901895CF93DF93CDB7DEB7CD57D1401B
S11323400FB6F894DEBF0FBECDBF0E94680F83E0C6
S113235090910F029923E1F310920F028150C1F77B
S113236089EC91E00E94290FCE0188529F4F0E9470
S11323703E04A12CC12CE12C00E020E040E0BE0191
S113238068527F4FCE0101960E942912CE018852D5
S11323909F4F0E94270487EC90E00197F1F700C05B
S11323A00000C85DDE4F1882C852D140CE01885269
S11323B09F4F0E94F90980910F028823E1F3CE0117
S11323C088529F4F0E940107CE0188529F4F0E945E
S11323D0F909F1CFCF93DF93EC011D861E861F868A
S11323E0198A188619861A861B861A8AEFEDF7E071
S11323F0DC01A359BF4F9C0123563F4F94919D93F9
S11324003196A217B307D1F7DF91CF9108950F93B7
S11324101F93CF93DF93EC014C854F5F4C878C0166
S11324200B521F4F9C012D523F4F6E817F818C8137
S11324309D810E94340EE881F9810480F581E02DAC
S1132440CE01099589E08A8BDF91CF911F910F917D
S11324500895AF92CF92EF920F93FC01758364833A
S1132460DB01AE5BBF4F8D939C9380EF91E0918332
S11324708083A481B5811D964C93A481B5811C965B
S11324802C93A481B5811B960C93A481B5811A96D3
S1132490EC92A481B5811996CC92A481B581189649
S11324A0AC92DF01A559BF4F82E58C93119681E070
S11324B08C93D19682EA8C93119682E08C93D39676
S11324C080E48C9311961C92139681E48C9311965C
S11324D01C92CF010E94EA110F91EF90CF90AF9020
S11324E00895AF92BF92CF92DF92EF920F931F9312
S11324F0CF93DF93EC018A89853009F4AFC030F4BF
S1132500882371F0843009F440C0BAC0883009F4DB
S113251077C0893009F48DC0863009F0B1C03BC062
S1132520888580FFADC06E018FECC80ED11C5E01A2
S1132530A1EDAA0EB11C6E817F81EE24E394860185
S113254095014C858C819D810E94890D81E090E0EC
S11325500E94880F6E817F81E12C95014C858C81CE
S11325609D810E94890D8C858F5F8C8781E090E02E
S11325700E94880F6E817F8196014C858C819D819C
S11325800E94C60D84E08A8B7BC0888581FF78C059
S113259086E08A8B75C0888584FF72C06E01B3EDB6
S11325A0CB0ED11C5E0185EDA80EB11C6E817F811E
S11325B0EE24E394860195014C858C819D810E94D3
S11325C0890D81E090E00E94880F6E817F81E12C6B
S11325D095014C858C819D810E94890D8C858F5F2E
S11325E08C8781E090E00E94880F6E817F81960144
S11325F04C858C819D810E94C60D88E08A8B40C0E9
S1132600888585FF3DC088898D3451F480E4FE01BE
S1132610BB96DF011D928A95E9F781E18A8B02C09E
S113262082E18A8B0E94770F2BA33CA34DA35EA368
S113263027C0888587FF24C04C854F5F4C878E0157
S11326400F521F4F9E0121533F4F6E817F818C811A
S11326509D810E94340E85E08A8B12C0888583FF99
S11326600FC06E817F818C819D810E94E6068FEF71
S11326709FEF9F838E83188619861A861B861A8A73
S1132680DF91CF911F910F91EF90DF90CF90BF908A
S1132690AF9008950F931F93CF93DF93EC018B01B9
S11326A081EE91E00E94290FEC81FD8181818111ED
S11326B032C08D8581112FC08E8581112CC08F85EC
S11326C0811129C08989811126C085A9811123C05E
S11326D086A9811120C087A981111DC0D80118962F
S11326E08C9118978230B9F41D968C911D9790E0C7
S11326F0982F88271C962C91822B419761F481E0B6
S11327008183898BEC81FD81868597859F838E8368
S11327101A8A8689888B6E817F81F801808190E096
S11327209B0133278217930709F0C7C1218130E049
S1132730872F992780622817390709F0BEC1ABC1DA
S11327408BA9813009F4A3C1823009F061C060E82B
S113275081EB97E00E944D0F60E888AD0E94600F06
S113276060E88FEA97E00E944D0F60E88FA90E940D
S1132770600F60E887EA97E00E944D0F60E88AAD39
S11327800E94600F60E885EA97E00E944D0F60E8C0
S113279089AD0E94600F60E887E997E00E944D0FC1
S11327A060E88CA90E94600F88AD90E0982F88277C
S11327B02FA9822B81319105A1F48CA98C8789AD35
S11327C0FE01E153FF4F80838AAD31968083888573
S11327D09985AA85BB85816088879987AA87BB87E5
S11327E056C1439709F053C18CA98C8789ADFE016A
S11327F0ED52FF4F80838AAD319680838885998519
S1132800AA85BB85806188879987AA87BB873FC1D2
S11328108530A1F58CAD90E0982F88272BAD822BC5
S1132820892B09F034C18FA9FE01EF52FF4F90812B
S113283089130FC028AD3196908129130AC0888569
S11328409985AA85BB85826088879987AA87BB8773
S11328501EC1FE01EB52FF4F9081891318C198AD40
S113286031968081981313C188859985AA85BB8583
S1132870806288879987AA87BB8709C1843049F514
S11328808FA9FE01EF52FF4F908189130EC028AD2E
S113289031969081291309C09E0121533F4F4CA9C1
S11328A08C819D810E94FB0DF2C0FE01EB52FF4F13
S11328B090818913ECC098AD319680819813E7C05C
S11328C09E012D523F4F4CA98C819D810E94FB0D8E
S11328D0DEC0863009F03FC08FA9FE01EF52FF4FE2
S11328E09081891319C028AD31969081291314C0A1
S11328F04CA94C878E0101531F4F9E012F523F4F0D
S11329008C819D810E94690EE881F9810480F581A2
S1132910E02DCE010995BBC0FE01EB52FF4F908123
S11329208913B5C098AD319680819813B0C04CA975
S11329304C878E010D521F4F9E012B523F4F8C81AD
S11329409D810E94690EE881F9810480F581E02D62
S1132950CE0109959CC0873079F58FA9FE01E1531A
S1132960FF4F9081891311C028AD319690812913AE
S11329700CC08CA98C8788859985AA85BB858860BD
S113298088879987AA87BB8782C0FE01ED52FF4FD3
S1132990908189137CC098AD31968081981377C05B
S11329A08CA98C8788859985AA85BB85806888874A
S11329B09987AA87BB876BC060E883E797E00E948A
S11329C04D0F60E88BA90E94600F61C0FE01EB52BD
S11329D0FF4F808198135BC031968081481357C0A4
S11329E08D85811107C08E85811104C08F85882350
S11329F009F44DC08BA9813A09F049C00E94770FB0
S1132A002B8B3C8B4D8B5E8B8D85811103C08F8509
S1132A10882379F08FA990E0982F88272EA9822BFC
S1132A20A0E0B0E028ADA22B8F8B988FA98FBA8F2E
S1132A3011C08E85882371F08EA990E0982F882785
S1132A402DA9822BA0E0B0E02FA9A22B8F8B988F09
S1132A50A98FBA8F4F89588D698D7A8D8B8D9C8DF6
S1132A60AD8DBE8D481759076A077B0781F08095A5
S1132A709095A095B09584239523A623B7238F8F93
S1132A8098A3A9A3BAA34B8F5C8F6D8F7E8FCE01C1
S1132A900E94711212C080E4F801DE019B9601903D
S1132AA00D928A95E1F799A94AA9292F30E0342B90
S1132AB02130310509F08ACF43CEDF91CF911F91A8
S1132AC00F9108952F923F924F925F926F927F924F
S1132AD08F929F92AF92BF92CF92DF92EF92FF922A
S1132AE00F931F93CF93DF93EC015B01142F0E948C
S1132AF0770F222E332E442E552ECFA0D8A4E9A42E
S1132B00FAA4D201C1018C199D09AE09BF09873904
S1132B109105A105B1055CF40E94770F222E332E96
S1132B20C6018A569F4F821993090E94880FDE01BD
S1132B30A053BF4FFE01E153FF4F6E817F81EC90A4
S1132B400081212FA5018C819D810E94290D0E9465
S1132B50770F2FA338A749A75AA7DF91CF911F91C9
S1132B600F91FF90EF90DF90CF90BF90AF909F9028
S1132B708F907F906F905F904F903F902F9008952B
S1132B80FC01EA58FF4F660F6083BC0165597F4F13
S1132B9042E30E9462150895611103C00E94C015AA
S1132BA00895E62FF0E0EC52F84FE491DC01AA58C6
S1132BB0BF4FEF70EE0F2C91E22BEC93BC016559E3
S1132BC07F4F42E30E9462150895CF93DF9300D0B4
S1132BD000D000D0CDB7DEB723E5298324EF2A83C4
S1132BE022E42B8323E02C831D821E8246E0BE0157
S1132BF06F5F7F4F0E94621526960FB6F894DEBF72
S1132C000FBECDBFDF91CF9108952F923F924F9287
S1132C105F926F927F928F929F92AF92BF92CF9268
S1132C20DF92EF92FF920F931F93CF93DF93EC0108
S1132C305B01142F0E94770F222E332E442E552E23
S1132C40CFA0D8A4E9A4FAA4D201C1018C199D098A
S1132C50AE09BF0987399105A105B1055CF40E944D
S1132C60770F222E332EC6018A569F4F821993095D
S1132C700E94880FDE01AC52BF4FFE01ED52FF4FA0
S1132C806E817F81EC900081212FA5018C819D8133
S1132C900E94290D0E94770F2FA338A749A75AA78E
S1132CA0DF91CF911F910F91FF90EF90DF90CF9024
S1132CB0BF90AF909F908F907F906F905F904F9058
S1132CC03F902F9008958F929F92AF92BF92CF9290
S1132CD0DF92EF92FF92CF93DF93EC018A898131E7
S1132CE0A1F1823121F0813009F095C06FC00E94BA
S1132CF0770F822E932EA42EB52E8BA19CA1ADA16D
S1132D00BEA1881A990AAA0ABB0A89EE881683E02A
S1132D109806A104B1040CF47EC0FE01BB9680E4C5
S1132D20DF011D928A95E9F78FE78AAF8BAF8CAFED
S1132D308DAFCE010E94E51581E18A8B0E94770F49
S1132D402BA33CA34DA35EA366C00E94770F822EE3
S1132D50932EA42EB52E8BA19CA1ADA1BEA1881A41
S1132D60990AAA0ABB0AB9EE8B16B3E09B06A10422
S1132D70B1040CF450C08889803519F481E08D8742
S1132D800FC08E3419F481E08F870AC08D3441F46A
S1132D900E94770F2BA33CA34DA35EA381E08E87F3
S1132DA01F8A188E198E1A8E1B8E1C8E1D8E1E8ED7
S1132DB01F8E18A219A21AA2E881F9810084F18554
S1132DC0E02DCE01099581E08A8B25C08E8588236C
S1132DD011F10E94770F822E932EA42EB52E8BA173
S1132DE09CA1ADA1BEA1881A990AAA0ABB0A81EACC
S1132DF088168FE09806A104B1046CF0BE016356F6
S1132E007F4F42E3CE010E9405160E94770F2BA349
S1132E103CA34DA35EA3DF91CF91FF90EF90DF9091
S1132E20CF90BF90AF909F908F900895FC01E05693
S1132E30FF4F60833196408331962083BC016356F3
S1132E407F4F42E30E9405160895CF92DF92EF92DE
S1132E50FF920F931F93E42F042F152F262F372F44
S1132E60772737FD7A95632F522F412F6901FF246D
S1132E70D7FCF094EF2C2E2F6C2D0E9416171F9167
S1132E800F91FF90EF90DF90CF900895DC011296A0
S1132E90ED91FC911397309711F009950895FC0179
S1132EA02685222339F040E050E06FEF70E00E9465
S1132EB02517089561E00E94CC150895EE0FFF1FB9
S1132EC00590F491E02D09942A0D3B1D4C1D5D1DC8
S1132ED06E1D7F1D801F911F08950024A7FD00947F
S1132EE02A0F301D401D501D601D701D801D901D3A
S1132EF008952A153B054C055D056E057F05800781
S1132F0091070895FB01DC014150504030F08D9150
S1132F100190801919F40020B9F7881B990B0895C2
S1072F20F894FFCF4F
S1132F24012B012B014F72656E0033313035004E95
S1132F34696E74656E646F004E696E74656E646F59
S1132F442052564C2D434E542D30312D5452004EA4
S1132F54696E74656E646F2052564C2D434E542D25
S1132F6430312D5543004E696E74656E646F205282
S1132F74564C2D5742432D303100576972656C65A8
S1132F84737320436F6E74726F6C6C65720041547A
S1132F9400204932432020436F6D6D756E6963616F
S1132FA474696F6E204572726F7220003D0D0A00C1
S1132FB43D002D0D0A002D001B0020416363656C48
S1132FC465726F6D65746572203A200020477972CA
S1132FD46F73636F7065203A20004275666665728C
S1132FE4204F76657272756E004843492057616BB1
S1132FF465204576656E74205265636569766564FB
S11330040041434C446174612E2E2E0000000000E4
S10D30144A136316EA110712461767
S9030000FC
